:020000040000FA
:10000000700E00206D0200008102000083020000DB
:10001000850200008502000085020000000000004B
:100020000000000000000000000000008502000049
:10003000850200000000000085020000850200002B
:100040008502000085020000850200008502000094
:100050008502000085020000D50E00008502000028
:100060008502000085020000850200008502000074
:1000700085020000850200003103000085020000B7
:100080008502000085020000850200008502000054
:100090008502000085020000850200008502000044
:1000A0008502000085020000850200008502000034
:1000B00085020000850200007D0800008502000026
:1000C00085020000D50E00008502000085020000B8
:1000D0008502000085020000850200008502000004
:1000E000850200008502000000000000850200007B
:1000F00085020000850200008502000085020000E4
:1001000085020000850200008502000085020000D3
:1001100000000000000000008502000085020000D1
:1001200085020000850200008502000085020000B3
:1001300085020000850200008502000085020000A3
:1001400000000000000000000000000000000000AF
:100150008502000085020000850200008502000083
:10016000000000000000000000000000000000008F
:10017000000000000000000000000000000000007F
:10018000000000000000000000000000000000006F
:10019000000000000000000000000000000000005F
:1001A000000000000000000000000000000000004F
:1001B0008502000085020000850200008502000023
:1001C0008502000085020000850200008502000013
:1001D0008502000085020000850200008502000003
:1001E000850200008502000085020000000000007A
:1001F000000000008502000085020000850200006A
:1002000085020000850200000000000000000000E0
:1002100085020000850200008502000085020000C2
:1002200085020000850200008502000085020000B2
:1002300085020000850200008502000085020000A2
:100240008502000085020000850200008502000092
:100250008502000085020000850200008502000082
:100260008502000085020000850200004EF68850DD
:10027000CEF20000016841F47001016000F004B8A2
:10028000FEE7FEE7FEE70000DFF810D000F020F800
:100290000048004739130000AFF30080700E0020C3
:1002A000EFF3108072B67047EFF310807047EFF3F2
:1002B000108062B6704730BF704780F31188704776
:1002C000EFF31180704700000138FDD17047000046
:1002D000064C074D06E0E06840F0010394E8070093
:1002E00098471034AC42F6D3FFF7D2FF0C1C000045
:1002F0002C1C000030B58C1810F8012B12F00F03E5
:1003000001D110F8013B120906D110F8012B03E0CE
:1003100010F8015B01F8015B5B1EF9D101E001F807
:10032000013B521EFBD1A142E6D3002030BD0000AC
:1003300008B50021064800F011F86A46002104487B
:1003400000F010F803A0009900F010FE08BD0000B6
:100350000080034025640D0A0000000001228A404D
:10036000C260704710B503464C014034234400205E
:1003700002E09C6810C2401CDC6804F480740CB974
:100380000828F6D310BD000010B51C4800F0BEFBD5
:100390001B4800F0BBFB1B4800F03CF910211A4839
:1003A00000F060F902221021174800F063F80A23D8
:1003B00001221021144800F081F81449144800F07B
:1003C000BFFB144AFF21124800F002FC0421104830
:1003D00000F0FAFB0321252000F0F8F90022FF21AC
:1003E0000B4800F0DDFB252000F0AEF9FF210848A6
:1003F00000F0E1FB00F0E2F910BD0000010400F0A4
:10040000010800F007100100005000401700000430
:1004100000100340110C000010B509A000F0A6FD6B
:1004200000240AE00A48015D0AA000F09FFD0B4885
:10043000015D08A000F09AFD641C322CF2DB10BDB7
:10044000646D612068616E646C65720D0A00000065
:100450000A0C002025640D0A000000003C0C00205E
:100460000348006840F040400149086070470000C0
:1004700034EF00E002F001031BB1D0F800340B436D
:1004800002E0D0F800348B43C0F8003402F00203DD
:100490001BB1D0F820340B4302E0D0F820348B435A
:1004A000C0F820347047C0F81C147047024611B1E0
:1004B000D2F818047047D2F81404FBE7F0B502F044
:1004C00001051DB1D0F800550D4302E0D0F80055EC
:1004D0008D43C0F8005502F002051DB1D0F8045557
:1004E0000D4302E0D0F804558D43C0F8045502F0E6
:1004F00004051DB1D0F808550D4302E0D0F80855A9
:100500008D43C0F8085502F008051DB1D0F8185504
:100510000D4302E0D0F818558D43C0F8185502F08D
:1005200010051DB1D0F83C550D4302E0D0F83C5504
:100530008D43C0F83C55002416E00125A5400D4030
:1005400085B1D0F8C45F67000326BE40B543C0F84C
:10055000C45FD0F8C45F6700C2F34116BE403543A4
:10056000C0F8C45F651CECB2082CE6DB03F00105A3
:100570001DB1D0F80C550D4302E0D0F80C558D4359
:10058000C0F80C5503F002051DB1D0F810550D430D
:1005900002E0D0F810558D43C0F8105503F0040563
:1005A0001DB1D0F814550D4302E0D0F814558D4319
:1005B000C0F8145503F008051DB1D0F81C550D43C3
:1005C00002E0D0F81C558D43C0F81C5503F40075AB
:1005D0001DB1D0F844550D4302E0D0F844558D4389
:1005E000C0F8445503F440751DB1D0F840550D4393
:1005F00002E0D0F840558D43C0F840551BB9D0F803
:1006000028550D4302E0D0F828558D43C0F82855F1
:10061000F0BD000010B50146C1F307400F4BDB6E83
:1006200001248440234033B1012303EB40030C4CED
:1006300054F8230003E04300094C54F82300C1F3AD
:100640000722D0F82C350F249440A34301F00F0467
:1006500094402343C0F82C3510BD000000E00F404B
:100660005417000030B504460D46022229462046A4
:10067000FFF700FF0823012229462046FFF71EFF4F
:1006800030BD30B504460D46022229462046FFF70C
:10069000F1FE0823012229462046FFF70FFF30BD57
:1006A000002303EB8103C2507047000010B52DED0D
:1006B000028B04469FED1B0AB0EE408A1A4890ED6B
:1006C000000ADFED1A0A20EE200AB0EE408ABCEEE6
:1006D000C80A10EE101A16A000F048FC9FED190A87
:1006E000B4EEC08AF1EE10FA06DD9FED160A38EE80
:1006F000400AB0EE408A09E09FED0C0A38EE000A8D
:10070000DFED100A30EE600AB0EE408ABCEEC80A97
:1007100010EE101A06A000F029FCB0EE480ABDEC5D
:10072000028B10BD000000000C0000200000B4434C
:10073000506F736974696F6E5F53756D203D20252E
:10074000640D0A0000009B43042806D1194909687A
:1007500041F48031174A11602BE0052806D1154974
:10076000096841F40031134A116022E0062806D1DD
:100770001049096841F480210E4A116019E00F28E0
:1007800008D14FF0E021096941F002014FF0E02269
:1007900011610EE010280CD3A0F1100101F01F022E
:1007A00001219140A0F110025209034B53F822207D
:1007B0001160704724ED00E0A018000010B5FFF7AD
:1007C00076FD08B1012010BD0020FCE710B50A46F7
:1007D00083080A4C54F8233019688307DC0EFF2382
:1007E000A34099438307DB0E02FA03F319438308FE
:1007F000024C54F82330196010BD000004180000AA
:1008000030B502460B4C24680B4DAC420ED0094C5F
:100810002368002005E053F82040074D45F82040AC
:10082000401C9B28F7D3044C024D2C60024C44F82A
:10083000221030BD08ED00E00004002010B5FFF7E5
:10084000BDFF1620FFF780FF10210A4800F09AFA3A
:10085000084800F08CFA08220121064800F08CFAC2
:100860000549044800F092FA00211620FFF7AEFF78
:1008700010BD000000D00040D50E000010B50024CF
:1008800001210E48FFF712FEC4B221460B48FFF7C4
:100890000AFE04F0100038B109A000F067FB08223E
:1008A0000E210648FFF7FCFE04F0010020B10422EF
:1008B0000E210248FFF7F4FE10BD00000050024078
:1008C00068656C6C6F0D0A0070B53C48036E016F73
:1008D00001F0004010B101F0700001E003F03000C1
:1008E000202811D003DC38B1102815D10AE03028B7
:1008F0000CD0702810D10CE03148C3F3841650F8A6
:1009000026200BE02F4A09E02F4A07E047F2305239
:1009100004E04FF4004201E0002070BD00BF01F090
:10092000004010B101F4006028B101F00040E0B9CE
:1009300003F40060C8B9254805682048D0F8644130
:1009400004F01F00401CC4F30426761C10FB06F0C4
:100950004000B2FBF0F2C5F309005043C5F389260D
:10096000564300EB962243F4800303F4800018B34F
:1009700001F00040D8B101F0804090B101F000409A
:1009800010B101F4006028B101F0004048B903F44F
:10099000006030B95600C1F38650401CB6FBF0F23F
:1009A0000AE0C1F3C550401CB2FBF0F204E0C3F30F
:1009B000C350401CB2FBF0F21046AEE700E00F401F
:1009C000F01800000024F40000093D0060E10F4031
:1009D0002DE9F04106464948056E046F45F400656F
:1009E00025F4800544F400640566046705F0010001
:1009F00010B306F00100F8B966F0010005403F4869
:100A0000056604F0004038B104F0700030280AD0C8
:100A100004F07000702806D004F0004040B905F0E2
:100A20003000302804D14FF48050FFF74DFC03E034
:100A30004FF40020FFF748FC25F4FE6506F4FE6045
:100A400005432F4804402E49A13106EA0100044322
:100A500006F0080044EAC004284805660467102030
:100A6000FFF732FC25F4005506F40050054324F44A
:100A7000005406F40050044340202049886504F0E7
:100A8000004018B108460467056602E01B48056689
:100A900004671C480540C14306EA0100054324F0F1
:100AA000FC5406F0FC50044306F0804040B145F48D
:100AB000800524F48004144906EA0100044301E09F
:100AC00024F0804406F4006080B94FF4004706E04B
:100AD0000A48006D00F0400000B102E07F1E002FC8
:100AE000F6D100BF25F4006524F4006403480566D0
:100AF00004671020FFF7E8FBBDE8F08100E00F403D
:100B00008FFFFF7FFEFF3FF80000404010B501213E
:100B1000C0F30722094B1A4402F0704242F00072FF
:100B2000C0F30723054C2344C3F3130342EA4312E3
:100B3000C3B242EA8302116010BD000000E60F401C
:100B4000C26840F201139A43C2600A0E0260114A61
:100B50001268114B1A40114B9A4211D1CAB201F4DA
:100B6000702342EA131242F40072426001F47002F0
:100B7000C1F3072343EA122242F40072826008E0C4
:100B8000CAB242F400724260C1F3072242F400721A
:100B90008260704700E00F400000FF7000000A1004
:100BA00010B540F60C431940C3688B4302EA0104B8
:100BB0002343C36010BDC26840F201130B401A43C7
:100BC000C26070474162704782690A438261704720
:100BD0002DE9F04105460E4614463146284600F000
:100BE00049FB074621463846FFF70AFE3846FFF71D
:100BF000ABFDBDE8F081024609B1106A7047D069CB
:100C0000FCE70246FF2901D1906C7047D06CFCE7ED
:100C100010B501214448FFF7EEFF04462146424843
:100C2000FFF7D0FF4148006878B940F20442FF2145
:100C30003D48FFF7B5FFFF213B48FFF7E2FF3C4986
:100C400008600120394908606DE0384800680128D3
:100C50000ED10022FF213448FFF7A2FFFF213248C6
:100C6000FFF7CFFF334908600220304908605AE09F
:100C70002E480068022856D100202C490860FF2128
:100C80002948FFF7BEFF2C4908602A480068284918
:100C90000968884207D92748006825490968401A29
:100CA0002649086009E0224800684FF6FF71081ADB
:100CB000204909680844214908601F4800681D4907
:100CC0000968884207D91C4800681A490968401A0F
:100CD0001B49086009E0174800684FF6FF71081AC1
:100CE00015490968084416490860FFF7EDFD1349E6
:100CF0000968134A12681144B0FBF1F01149086009
:100D00000E4800680E490968084400EE100AF8EE23
:100D1000400A0A4890ED000AB8EE400A80EE201A18
:100D2000094880ED001A10BD00100340100000209B
:100D300014000020180000201C00002020000020CB
:100D400024000020080000200C00002001468869D3
:100D500000F0100008B9086870474FF0FF30FBE75B
:100D6000C0F8C81F7047826C0A4382647047C16A2A
:100D700041F01001C162704741EA020343637047CA
:100D800041647047826B0A438263704770B50446C2
:100D90000D46204600F09AFA064629463046FFF7EF
:100DA0002FFD3046FFF7D0FC70BD024609B1106C34
:100DB0007047D06BFCE700002DE9F04104460D467A
:100DC0001646154A52F824004FF08072526C116991
:100DD000884708B9BDE8F081104850F82400104950
:100DE00008600D4A52F824004FF08072526C9169ED
:100DF00088474FF08070406960232A463146476932
:100E000007480068B8474FF080704069C1690448DE
:100E10000068884700BFDDE7EC1B0000E01B000016
:100E20002800002010B500F0F7F9FFF707FD00F0EB
:100E300013F80548017805A000F098F805480178F6
:100E400002A000F093F810BD0A0C002025640D0AE2
:100E5000000000003C0C002008B51748FFF756FEC4
:100E6000164800F0AFFA00F0A3FB154800F09AFB1B
:100E700001211448FFF777FF0F21162000F0B6FA82
:100E80001149162000F0F6FA3220104B0D4A0321CA
:100E90000090162000F02EFB0121162000F0C8FA69
:100EA000162000F0FBFA3E20FFF74EFC08493E20DA
:100EB00000F084FB08BD0000000C00F008000100F9
:100EC0000008002000D000400080000C0A0C002028
:100ED00019040000F8B501211C48FFF766FF04461D
:100EE00021461A48FFF74CFF04F0400058B1162085
:100EF00000F0F6FA1548FFF729FF0646314614A020
:100F000000F034F821E004F01000F0B112A000F07D
:100F10002DF8162000F0CCFA054695B910A000F087
:100F200025F810480068401C0E49086032200E4B1E
:100F3000064A03210090162000F0DCFA162000F08B
:100F4000ADFA162000F0CCFA00BFF8BD00D000408A
:100F500025640D0A0000000068656C6C6F0D0A00C6
:100F6000310D0A00000000200A0C00200FB408B563
:100F700003A800900099029800F006F80020009065
:100F800001B05DF814FB00002DE9F34F85B0064673
:100F900012E1002400E0641C305D252802D0305DA1
:100FA0000028F8D12146304600F016F92644307862
:100FB0002528EDD1761C00254FF0200B00BF16F838
:100FC000011B382932D014DC33292AD008DC25292A
:100FD0006FD0302922D0312921D032296AD11FE0A7
:100FE00034291FD035291ED036291DD03729F5D1F7
:100FF0001BE0692935D008DC392918D0582972D06E
:10100000632922D06429E9D12AE070296CD07329A0
:101010003CD0752958D07829E0D163E000BF00BFEB
:1010200000BF00BF00BF00BF00BF00BF00BF16F879
:10103000010C302801D105B9834605EB8500450038
:1010400016F8010C30380544B9E70698006804909A
:101050000698001D0690012104A800F0BDF8AAE042
:1010600000BF0698006804900698001D06904FF097
:1010700000080498002805DA0498404204904FF0D4
:10108000010901E04FF000090A2739E0069850F8FD
:1010900004AB0690002400E0641C1AF80400002849
:1010A000FAD12146504600F097F8A5420BD92D1BE6
:1010B00005E076E07AE0012143A000F08DF8281EDB
:1010C000A5F10105F7D176E006980068049006982E
:1010D000001D06904FF000080A274FF000090FE0AE
:1010E00001E001E000BF00BF069800680490069888
:1010F000001D06904FF0000810274FF0000900BFB8
:10110000012401E07C436D1E04FB07F00499884232
:1011100005D804FB07F0B0FBF7F0A042F2D0B9F11C
:10112000000F00D06D1EB9F1000F0AD0BBF1300FD7
:1011300007D12D22404608F101080DF800204FF09C
:101140000009012D0BD9102D09D26D1E05E0404676
:1011500008F101080DF800B06D1E002DF7D1B9F1AE
:10116000000F05D02D22404608F101080DF800209F
:1011700010E00498B0FBF4F0B0FBF7F107FB1100AE
:10118000124909680A5C404608F101080DF8002080
:10119000B4FBF7F4002CECD14146684600F01CF893
:1011A00009E0701E012100F017F804E0052108A0F5
:1011B00000F012F800BF00BF307800287FF4E9AEDD
:1011C00007B0BDE8F08F000020000000DC1B00002D
:1011D0004552524F5200000070B505460E4600249D
:1011E00013E0285D0A2807D14FF0807040690D2177
:1011F0000268084800689047295D4FF08070406998
:101200000268044800689047641CB442E9D3204651
:1012100070BD00002800002010B51048FFF776FCD4
:101220000F48FFF773FC0F48FFF7F4F94FF0011078
:10123000FFF7F0F902210C48FFF723FA01210A48D1
:10124000FFF71FFA05210948FFF78AFD084A4FF406
:10125000E1310120FFF7B0FD10BD0000011800F0E2
:10126000010800F0010401000050004000D00040DF
:101270000024F400F0B503460C460F4D0C260F4831
:1012800000680F4F38400F4FB84201D10E4D08266D
:1012900000210DE055F83100984208D105EBC1005E
:1012A0004268B4F57F4F00D1521C1046F0BD491C76
:1012B000B142EFD30020F9E7BC1A000000E00F4074
:1012C0000000FF7000000A101C1B000030B5024631
:1012D0000C4B08240C4800680C4D28400C4DA842CB
:1012E00001D10C4B00BF002108E053F831009042BF
:1012F00003D103EBC100406830BD491CA142F4D3C7
:101300000020F9E75C1B000000E00F400000FF70C8
:1013100000000A109C1B000002E008C8121F08C150
:10132000002AFAD170477047002001E001C1121F66
:10133000002AFBD1704700002DED028B1548FFF706
:1013400047FBFFF78DF8FFF76DFDFFF71DF812A0C3
:10135000FFF70CFEFFF7B8FA0446214610A0FFF78E
:1013600005FE9FED110AB0EE408A12E06420FFF7FF
:101370009DF9B0EE408A9FED0D0A28EE000ABCEE02
:10138000C00A10EE101A0AA0FFF7F0FD0C48FEF795
:101390009BFFEBE7400500C168656C6C6F0D0A00B0
:1013A00025640D0A00000000000000000000C84293
:1013B000616E676C65203D2025640D0A0000000009
:1013C00010E4960130B5C3B2000CDC08064D05EB05
:1013D00084015C07E20E0C680F259540AC4300FACF
:1013E00002F52C430C6030BD10F50F4000F01F00DB
:1013F00001F001021AB1012282400C4BDA6101F0C6
:1014000002021AB101228240084B5A6301F0040221
:101410001AB101228240054BDA6301F008021AB1C9
:1014200001228240014B5A627047000000F00F40D9
:1014300000F01F0001F001021AB1012282400C4BA2
:101440009A6101F002021AB101228240084B1A632C
:1014500001F004021AB101228240054B9A6301F0A7
:1014600008021AB101228240014B1A627047000043
:1014700000F00F4010B500F03F00064B9A6802EBF9
:1014800000139B68044C23400B4302EB0014A36041
:1014900010BD000000F00F40F73FFC0000F01F02FD
:1014A00001219140014A91627047000000F00F4015
:1014B000014601F03F01094B9A6802EB01139B685A
:1014C00003F0070020F00103042B03D020F00103F8
:1014D000062B01D120F001007047000000F00F4002
:1014E00000F01F0201219140014A51617047000044
:1014F00000F00F402DE9F04316461F46079D00F00F
:101500003F00DFF89C80D8F8083003EB0018D8F8CB
:10151000088043F6F77928EA090400F02008B8F1BA
:10152000000F05D0042901D0062901D141F00101A5
:10153000A5F1010841EA081848EA040404F04062F1
:10154000B2F1406F06D0920E05FA02FC06EB0C08D1
:10155000A8F1010603EB0018C8F8006004F040424F
:10156000B2F1404F11D0042901D0062906D140F034
:10157000200803EB081808F10C0706E0920F05FAA3
:1015800002FC07EB0C08A8F1010703EB0018C8F8F0
:10159000047003EB0018C8F80840BDE8F0830000B1
:1015A00000F00F40014988607047000000F00F40D4
:1015B000012001494860704700F00F4070B50446B3
:1015C0000D4629462046FFF71BF92046FFF7BCF8D9
:1015D00070BD000000400040100000000080054089
:1015E0001000000000500040110000000090054075
:1015F00011000000006000401200000000A0054043
:1016000012000000007000401300000000B0054010
:1016100013000000004002401400000000C005401C
:1016200014000000005002402E00000000D00540D1
:101630002E000000006002402F00000000E0054086
:101640002F000000007002403000000000F0054054
:101650003000000000D003404600000000000640BB
:101660004600000000100640470000000020064031
:1016700048000000003006407F00000000400640A7
:10168000800000000050064084000000006006401A
:101690008C00000000400040100000000080054069
:1016A00010000000005000401100000000900540B4
:1016B00011000000006000401200000000A0054082
:1016C00012000000007000401300000000B0054050
:1016D00013000000004002401400000000C005405C
:1016E00014000000005002402E00000000D0054011
:1016F0002E000000006002402F00000000E00540C6
:101700002F000000007002403000000000F0054093
:101710003000000000D003404300000000000640FD
:101720004300000000100640440000000020064076
:101730004500000000300640580000000040064010
:1017400059000000005006405C00000000600640A8
:101750006400000000400040008005400050004050
:10176000009005400060004000A00540007000406F
:1017700000B005400040024000C00540005002405B
:1017800000D005400060024000E0054000700240CB
:1017900000F0054000D00340000006400010064065
:1017A00000100640002006400020064000300640A1
:1017B0000030064000400640004006400050064011
:1017C0000050064000600640006006400070064081
:1017D00000700640008006400080064000900640F1
:1017E0000090064000070000000600000005000011
:1017F00000040000000300000002000000010000DF
:10180000000000000000000018ED00E01CED00E00A
:1018100020ED00E000E400E004E400E008E400E083
:101820000CE400E010E400E014E400E018E400E060
:101830001CE400E020E400E024E400E028E400E010
:101840002CE400E030E400E034E400E038E400E0C0
:101850003CE400E040E400E044E400E048E400E070
:101860004CE400E050E400E054E400E058E400E020
:101870005CE400E060E400E064E400E068E400E0D0
:101880006CE400E070E400E074E400E078E400E080
:101890007CE400E080E400E084E400E088E400E030
:1018A00000E100E004E100E008E100E00CE100E01C
:1018B00010E100E080E100E084E100E088E100E088
:1018C0008CE100E090E100E000E200E004E200E0F2
:1018D00008E200E00CE200E010E200E080E200E05C
:1018E00084E200E088E200E08CE200E090E200E0C8
:1018F00040420F0000201C0080841E000080250054
:10190000999E36000040380000093D0000803E00EE
:1019100000004B00404B4C0000204E00808D5B00CF
:1019200000C05D000080700000127A0000007D00A1
:1019300080969800001BB7000080BB00C0E8CE0076
:10194000647ADA000024F4000000FA0080A8120192
:10195000002D310100366E0140787D01400000000D
:10196000000000003E00080000000000A000000091
:101970000200000034540100000000002B7006003B
:101980000000000028000000000000002700010007
:1019900000000000200000000000000050000000D7
:1019A000020000001AAC00000000000017940900BB
:1019B0000000000016980500000000001400000060
:1019C000000000001380080000000000A0000000DC
:1019D00008000000100000000000000028000000C7
:1019E0000200000040000000040000006000000051
:1019F000000000005D000C0000000000500000002E
:101A0000000000004E0002000000000041AC010098
:101A1000000000003C000000000000003A800900C7
:101A2000000000003000000000000000280000005E
:101A300000000000270001000000000023600600F5
:101A40000000000021600800000000001E000000EF
:101A5000000000001DC00400000000005000000055
:101A60000200000018000000000000001400000048
:101A70000000000060000000040000000024F400EA
:101A80003000300080C3C9017100710080F0FA029B
:101A9000B200B20000879303D300D30000B4C404A3
:101AA0001401140100E1F50555015501000E270749
:101AB0009601960100D0121300389C1C00000340D0
:101AC0002300000000100340250000000020034018
:101AD00027000000003003403300000000400340B6
:101AE00056000000005003406C00000000600340FE
:101AF0006E000000007003407000000000C0044051
:101B00007200000000D004407400000000E00440B7
:101B10007600000000F00440780000000000034060
:101B200023000000001003402500000000200340B7
:101B30002700000000300340330000000040034055
:101B40004F000000005003405100000000000E4014
:101B50007200000000100E407400000000C0004041
:101B60001500000000D000401600000000E000401A
:101B70003100000000F000404B0000000000014078
:101B80004C000000001001404D000000002001400A
:101B90004E000000003001404F00000000C0004037
:101BA0001500000000D000401600000000E00040DA
:101BB0003100000000F0004048000000000001403B
:101BC00049000000001001404A00000000200140D0
:101BD0004B000000003001404C000000F81B0000EA
:101BE00000C0004000D0004000E00040001800F0BD
:101BF000011800F0021800F0303132333435363736
:101C00003839616263646566000000002C1C0000C6
:101C1000000000206C060000F40200003C1C0000E4
:101C20006C060020040800002813000001FF01FFDB
:0C1C300001FF01FF01FF01FF017900002E
:04000005000002896C
:00000001FF
